:020000040800F2
:104000000080002021450008E9440008ED44000834
:10401000F1440008F5440008F944000800000000DD
:10402000000000000000000000000000FD44000847
:10403000014500080000000005450008094500088A
:104040007145000871450008714500087145000878
:104050007145000871450008714500087145000868
:104060007145000871450008714500087145000858
:104070007145000871450008714500087145000848
:1040800071450008000000007145000871450008F6
:104090007145000871450008714500087145000828
:1040A0007145000871450008714500087145000818
:1040B0007145000871450008714500087145000808
:1040C00071450008714500087145000871450008F8
:1040D00071450008714500087145000871450008E8
:1040E00071450008714500087145000871450008D8
:1040F0007145000871450008714500080000000086
:104100000000000071450008000000007145000833
:104110007145000800000000714500087145000865
:104120007145000871450008714500087145000897
:104130007145000800000000000000007145000803
:1041400071450008714500080000000000000000F3
:10415000000000000000000000000000000000005F
:104160000000000000000000000000007145000891
:104170007145000800000000000000000000000081
:104180000000000071450008000000000000000071
:10419000000000000000000000000000000000001F
:1041A0000000000000000000714500087145000893
:1041B00071450008714500087145000800000000C5
:1041C0000000000071450008000000000000000031
:0841D00071450008714500086B
:1041D80053B94AB9002908BF00281CBF4FF0FF3166
:1041E8004FF0FF3000F00CB8ADF1080C6DE904CECB
:1041F80001F03AFCDDF804E0DDE9022304B0704781
:10420800704700BF0348044B834202D0034B03B1FD
:10421800184770470C0000200C0000200000000028
:104228000548064B1B1AD90F01EBA301491002D010
:10423800034B03B1184770470C0000200C00002006
:104248000000000010B5064C237843B9FFF7DAFFE9
:10425800044B13B10448AFF300800123237010BD51
:1042680010000020000000002C5D000808B5054B78
:104278001BB105490548AFF30080BDE80840FFF7CA
:10428800CFBF00BF00000000140000202C5D000814
:1042980030B595B03822002106A801F0DDFB0020DA
:1042A800CDE90100CDE90300059000F03DFB4FF496
:1042B800807209924022022304240A9206A85522F9
:1042C800CDE90D33CDE90F42069311931293139361
:1042D80000F0A4FB08B172B6FEE703460F250322DF
:1042E800214601A8CDE90152CDE90333059300F039
:1042F8000FFE08B172B6FEE715B030BD00B5002458
:104308008BB000F059F9FFF7C3FFCDE90444CDE9BC
:1043180006443B4B0894D96C3A4D41F00401D964EA
:10432800D96C01F0040100910099D96C41F0200189
:10433800D964D96C01F0200101910199D96C41F03F
:104348000101D964D96C01F0010102910299D96C7B
:1043580041F00201D964DB6C03F0020322460393A7
:1043680020214FF09040039B00F0CEFA4FF400520A
:104378004FF488132448069404A9CDE9042300F0D7
:10438800B9F92022012304A94FF09040CDE9042374
:10439800CDE9064400F0AEF91C492C614FF4E13236
:1043A8000020C5E900120021C5E908010C232846B0
:1043B800C5E902446B61AC61AC6201F06BFA08B10B
:1043C80072B6FEE70146284601F0D6FA08B172B681
:1043D800FEE70146284601F0F5FA08B172B6FEE795
:1043E800284601F0ABFA08B172B6FEE720214FF07B
:1043F800904000F08FFA4FF47A7000F0FFF8F5E77C
:1044080000100240300000200008004800800040F2
:1044180072B6FEE70B4B1A6E42F001021A661A6E6C
:1044280082B002F001020092009A9A6D42F0805226
:104438009A659B6D03F080530193019B02B000F0D5
:10444800E5BA00BF0010024010B5044698B000213C
:10445800442207A8CDE90211CDE90411069101F023
:10446800FBFA1D4B22689A4201D018B010BD2023D8
:1044780007A8079300F074FE18BB184BDA6D42F0DA
:104488000102DA65DA6D02F001020092009ADA6C34
:104498009FED0D7B42F00102DA64DB6C8DED027B4F
:1044A8009FED0B7B03F00103019302A90C234FF04E
:1044B80090408DED047B019A069300F01BF918B02B
:1044C80010BDFFF7A5FFD8E70C00000002000000B0
:1044D80000000000000000000080004000100240C2
:1044E800FEE700BFFEE700BFFEE700BFFEE700BF34
:1044F800FEE700BF704700BF704700BF704700BFAE
:1045080000F06AB8034AD2F8883043F47003C2F85E
:104518008830704700ED00E00D4885460D480E498B
:104528000E4A002302E0D458C4500433C4188C4205
:10453800F9D30B4A0B4C002301E013600432A2426A
:10454800FBD3FFF7DFFF01F063FAFFF7D7FEFEE7C3
:1045580000800020000000200C000020945D00086E
:1045680010000020C4000020FEE7000038B50F4B03
:104578001B680BB9012038BD0D494FF47A72054606
:10458800B2FBF3F30868B0FBF3F000F099F80446C7
:104598000028EFD10F2DEDD8024629464FF0FF3005
:1045A80000F050F8034B20461D6038BD0400002081
:1045B800000000200800002010B5032000F030F8AB
:1045C8000020FFF7D3FF10B10124204610BD044698
:1045D800FFF720FF204610BD034A04491368096805
:1045E8000B441360704700BFC00000200400002087
:1045F800014B1868704700BFC000002038B504465A
:10460800FFF7F6FF631C054602D0044B1B681C44E9
:10461800FFF7EEFF401BA042FAD338BD040000208C
:104628000749CA6803024FF6FF0003F4E06302403B
:10463800134343F0BF6343F40033CB60704700BFBC
:1046480000ED00E01C4BDB68C3F3022300B5C3F1A7
:10465800070EBEF1040F03F1040C28BF4FF0040E3F
:10466800BCF1060F1BD9033B4FF0FF3C0CFA03FCCF
:1046780022EA0C024FF0FF3C0CFA0EFC21EA0C0176
:104688009940002841EA02010CDB00F16040090171
:1046980000F56140C9B280F800135DF804FB002200
:1046A8001346E7E7054B00F00F0009010344C9B2C0
:1046B80019765DF804FB00BF00ED00E0FCEC00E0BB
:1046C8000138B0F1807F01D30120704710B44FF05A
:1046D800E023074C58614FF0F00C84F823C0002207
:1046E800072110469A615DF8044B1961704700BFB5
:1046F80000ED00E02DE9F04F0C6885B0002C00F0CB
:1047080082804FF0000C794E009163464FF0010B08
:104718000BFA03F818EA040A6FD000994D6805F0FF
:104728000302571E012F71D9032A02FA0CF240F036
:10473800AE806FEA020E076807EA0E073A4315F4DF
:10474800403F026059D06A4F3A6E42F001023A6621
:104758003A6E02F001020392039A23F0030202F177
:10476800804202F5803203F0030E97684FEA8E0EFE
:104778000F2101FA0EF8B0F1904F27EA08071DD073
:104788005C49884200F09C805B49884200F09F8029
:10479800DFF86881404500F08C80DFF8648140458F
:1047A80000F09C80DFF85C8140450CBF4FF00508A5
:1047B8004FF0060808FA0EFE47EA0E079760B2683F
:1047C8006FEA0A07E90254BF3A404AEA0202B260B5
:1047D800F268A90254BF3A404AEA0202F2607268DB
:1047E800A90354BF3A404AEA020272603268E903F8
:1047F80054BF3A404AEA02023260013334FA03F203
:104808000CF1020C84D105B0BDE8F08FD0F8089007
:10481800CF68032101FA0CFE29EA0E0907FA0CF702
:1048280047EA090787604768009927EA0808C5F337
:1048380000179F4047EA08074760C76827EA0E083D
:104848008F6807FA0CF747EA0807022A6FEA0E0E84
:10485800C76002FA0CF27FF46EAF4FEAD30900EB9F
:10486800890903F00708D9F82010019100990F6908
:104878004FEA88080F2107FA08F701FA08F80199A2
:1048880021EA080847EA0807C9F8207053E70099A1
:10489800D0F80C808F684FF0030E0EFA0CFE28EA51
:1048A8000E0807FA0CF747EA0807C7606FEA0E0E0A
:1048B80041E74FF0030808FA0EFE47EA0E077DE7C6
:1048C8004FF0010808FA0EFE47EA0E0776E74FF0A8
:1048D800020808FA0EFE47EA0E076FE74FF00408D1
:1048E80008FA0EFE47EA0E0768E700BF0004014019
:1048F800001002400004004800080048000C00486E
:1049080000100048001400480AB1816170478162B4
:10491800704700BF436901EA030221EA030141EA43
:1049280002418161704700BF354A136860B903F4DA
:10493800C063B3F5806FD2F880301BD023F4807346
:10494800C2F8803000207047B0F5007F06D023F40D
:10495800C06343F4806313600020704703F4C063AE
:10496800B3F5806FD2F8803029D043F48073C2F851
:104978008030F1E723F48073C2F88030136821484F
:10498800214923F4C06343F40073136003683220A1
:1049980000FB03F35069A1FB03139B0C400503F1D3
:1049A800010306D500E023B15169490503F1FF333E
:1049B800F9D4134B5B695B05CED50320704743F4EC
:1049C8008073C2F8803013680E480F4923F4C0631F
:1049D80043F4007313600368322000FB03F350694B
:1049E800A1FB03139B0C400503F10103E1D501E092
:1049F800002BDED05169490503F1FF33D9D5F7E71C
:104A0800007000400000002083DE1B43024A9368C8
:104A180043F480439360704700700040002800F022
:104A280039822DE9F0410368D90782B0044612D5CE
:104A3800A3498A68C96802F00C020C2A00F0D680E3
:104A4800082A40F0D8809E4A1268920303D562680B
:104A5800002A00F0A4819A0722D5994A9368D2685F
:104A680003F00C030C2B00F0FE80042B40F00081B7
:104A7800934B1B685B0503D5E368002B00F08F811F
:104A88008F4A206953688F4923F0FE4343EA006345
:104A980053600868FFF76AFD002840F080812368AA
:104AA8001A0719D56369864D002B00F0C880D5F820
:104AB800943043F00103C5F89430FFF799FD06469A
:104AC80005E0FFF795FD801B022800F21881D5F854
:104AD80094309B07F5D523685D0741D5784B9A6DCF
:104AE800D00000F110819A6D42F080529A659B6D5A
:104AF80003F080530193019B0125734E3368D90558
:104B080040F12F81A368012B00F0FF80052B00F0F6
:104B180085816B4ED6F8902022F00102C6F89020CD
:104B2800D6F8902022F00402C6F89020002B40F01E
:104B3800F380FFF75DFD41F28838074605E0FFF78F
:104B480057FDC01B404500F2DA80D6F8903099072F
:104B5800F5D425B15A4A936D23F0805393652368A1
:104B68009A0618D5A369564D002B00F0E680D5F8B3
:104B7800983043F00103C5F89830FFF739FD064631
:104B880005E0FFF735FD801B022800F2B880D5F854
:104B980098309B07F5D5E36923B3494DAA6802F01D
:104BA8000C020C2A00F04881022B2B6823F080733A
:104BB8002B6000F0F680EB6823F00303EB60EB68F2
:104BC80023F0887323F48033EB60FFF711FD04466C
:104BD80005E0FFF70DFD001B022800F290802B680E
:104BE8009B01F6D4002002B0BDE8F08101F003017A
:104BF80003293FF428AF6368B3F5803F55D0B3F578
:104C0800A02F00F0BF802E4D2A6822F480322A603F
:104C18002A6822F480222A60002B4BD1FFF7E8FC97
:104C2800064604E0FFF7E4FC801B642867D82B687D
:104C38009903F7D423689A077FF532AF0DE7D5F8C3
:104C4800943023F00103C5F89430FFF7D1FC0646F1
:104C580004E0FFF7CDFC801B022850D8D5F894302B
:104C68009F07F6D437E702F00302022A3FF400AFA9
:104C7800E368134D002B32D02B6843F480732B600C
:104C8800FFF7B6FC064604E0FFF7B2FC801B0228DB
:104C980035D82B685F05F7D56B68226923F0FE438A
:104CA80043EA02636B602368FAE6054A136843F433
:104CB80080331360FFF79CFC014E05460BE000BFF4
:104CC800001002400800002000700040FFF790FC30
:104CD800401B642813D833689F03F7D5AAE72B68CD
:104CE80023F480732B60FFF783FC06462B68590575
:104CF8007FF5D5AEFFF77CFC801B0228F6D9032090
:104D080002B0BDE8F0810025F7E6634AD2F890309A
:104D180043F00103C2F89030FFF76AFC5E4F064685
:104D280041F2883804E0FFF763FC801B4045E6D871
:104D3800D7F890309B07F6D50BE7D5F8983023F0D5
:104D48000103C5F89830FFF753FC064604E0FFF767
:104D58004FFC801B0228D2D8D5F898309F07F6D48C
:104D680019E7336843F480733360FFF741FC074663
:104D78003368DA053FF5C6AEFFF73AFCC01B0228D8
:104D8800F6D9BCE703F18043A3F53C331A6842F433
:104D980080221A601A6842F480321A608AE7012079
:104DA80021E7FFF725FC064604E0FFF721FC801BFE
:104DB8000228A4D82B689901F7D4E968374B226AEE
:104DC800606A354E0B401343D4E90A1243EA0123C3
:104DD80043EAC263D4E90C120138490843EA0013D4
:104DE8000139520843EA4153013A43EA4263EB600E
:104DF8002B6843F080732B60EB6843F08073EB60A3
:104E0800FFF7F6FB044605E0FFF7F2FB001B02285C
:104E18003FF675AF33689A01F6D5E3E61E4BD3F833
:104E2800902042F00402C3F89020D3F8902042F07A
:104E38000102C3F890206FE7012BB0D0EB68226A1B
:104E480003F003019142AAD1616A03F0F00201392B
:104E5800B2EB011FA3D1A16A03F4FE42B2EB012F0A
:104E68009DD1E16A03F07842B2EBC16F97D1226B12
:104E7800520803F4C001013AB1EB425F8FD1626B73
:104E8800520803F0C063013AB3EB426F14BF01202C
:104E98000020A8E601207047001002400C809F0106
:104EA800184B9A6802F00C02042A26D09A6802F07D
:104EB8000C02082A23D09A6802F00C020C2A01D0AE
:104EC80000207047D968DA68D86801F0030103291F
:104ED800C2F30312C0F306200CBF0B4B0B4B01327D
:104EE800B3FBF2F303FB00F0064BDB68C3F341634B
:104EF80001335B00B0FBF3F0704704487047024889
:104F0800704700BF0010024000366E010024F40014
:104F1800002800F0EE80784A2DE9F843136803F082
:104F28000F038B420D4604460CD2136823F00F037F
:104F38000B431360136803F00F038B4202D0012068
:104F4800BDE8F8832368DF0769D56768032F00F099
:104F5800A0806A4B022F1B6800F097805B05EED596
:104F6800FFF79EFF664B984240F2C080634A936801
:104F780023F0F00343F0800393604FF080095F4E05
:104F8800B36823F003033B43B360FFF731FB41F2FF
:104F98008838074604E0FFF72BFBC01B404571D853
:104FA800B368626803F00C03B3EB820FF3D1236894
:104FB8009F0736D4B9F1000F03D0B36823F0F0038C
:104FC800B3604D4E336803F00F03AB4246D82368F5
:104FD8005A0706D54949E0688A6822F4E062024324
:104FE8008A601B0707D5454A2169936823F46053F3
:104FF80043EAC1039360FFF753FF404A414C92686C
:105008004149C2F303120346A25C404802F01F0262
:10501800D3400B600068BDE8F843FFF7A7BA9E07C6
:10502800CFD5580704D535498A6842F4E0628A60CA
:10503800190706D5314A936823F47C5343F4E06397
:1050480093602E4AA16893682B4E23F0F0030B431C
:105058009360336803F00F03AB42B8D9336823F089
:105068000F032B433360FFF7C3FA41F28838074632
:10507800336803F00F03AB42A9D0FFF7B9FAC01B9E
:105088004045F5D90320BDE8F8839A033FF568AF9A
:1050980055E71A4A116888017FF551AFD068D16881
:1050A800D268174E00F003000328C1F303110CBFA8
:1050B800174818480131B0FBF1F11048C2F3062235
:1050C80001FB02F2C168C1F3416101314900B2FB41
:1050D800F1F2B2420AD9826812F0F00F3FF446AFFB
:1050E800990703D5A368002B3FF440AF4FF00009A0
:1050F80045E70120704700BF002002400010024031
:1051080000B4C4044C5D0008000000200800002022
:1051180000366E010024F400054B064A9B680649D8
:10512800C3F302230868D35C03F01F03D840704719
:1051380000100240445D000800000020054B064AAC
:105148009B680649C3F3C2230868D35C03F01F03B6
:10515800D840704700100240445D0008000000205D
:105168002DE9F0410368044613F4002082B055D0BD
:105178009E4B9A6DD50040F10B8100279C4D2B6802
:1051880043F480732B60FFF733FA064605E0FFF718
:105198002FFA831B022B00F206812B68D805F6D55F
:1051A800924DD5F8903013F4407326D0226C9A4271
:1051B80024D0D5F89010D5F8903043F48033C5F852
:1051C8009030D5F8903023F48033C5F8903021F42E
:1051D8004073C907C5F8903010D5FFF709FA41F2B6
:1051E8008838064605E0FFF703FA801B404500F2C1
:1051F800DA80D5F890309B07F5D5226C7B49D1F839
:10520800903023F440731343C1F89030002027B145
:10521800764A936D23F0805393652368DE0708D59B
:1052280072496568D1F8882022F003022A43C1F840
:1052380088209D0708D56D49A568D1F8882022F0F7
:105248000C022A43C1F88820590708D56749E56840
:10525800D1F8882022F030022A43C1F888201A07A2
:1052680008D562492569D1F8882022F0C0022A436E
:10527800C1F888209F0608D55C496569D1F888205F
:1052880022F440622A43C1F888205E0608D55749AF
:10529800A569D1F8882022F440522A43C1F8882011
:1052A8001D0608D55149E569D1F8882022F4404205
:1052B8002A43C1F88820D90508D54C49256AD1F870
:1052C800882022F440322A43C1F888209A0508D55C
:1052D8004649656AD1F8882022F440222A43C1F859
:1052E80088205F050BD54149A56AD1F8882022F4AA
:1052F80040122A43B5F5801FC1F8882055D01E05F5
:105308000BD53A49E56AD1F8882022F440022A43AD
:10531800B5F5800FC1F888204CD0DD040BD5334992
:10532800256BD1F8882022F040722A43B5F1807F9E
:10533800C1F8882043D099040BD52C49656BD1F866
:10534800882022F040622A43B5F1006FC1F8882016
:105358003AD05A040BD52549A56BD1F8882022F0FC
:1053680040622A43B5F1006FC1F8882031D01B0490
:105378000BD51E4AE16BD2F8883023F040530B431B
:10538800B1F1805FC2F8883028D002B0BDE8F08162
:105398009A6D42F080529A659B6D03F08053019399
:1053A800019B0127EAE6032031E7CA6842F480122C
:1053B800CA60A4E7CA6842F48012CA60ADE7CA6846
:1053C80042F48012CA60B6E7CA6842F48012CA6022
:1053D800BFE7CA6842F48012CA60C8E7D36843F4DA
:1053E8008033D36002B0BDE8F08100BF00100240F6
:1053F8000070004038B50446036882680069616936
:105408001D6802430A43E0699749024329400A4359
:105418001A605A68E16822F440520A4393495A6074
:105428008B42A269996800F0C080256A21F06E411C
:1054380021F430612A430A439A60DA6A616A22F0E9
:105448000F020A43DA628A4A934235D0894A934264
:105458000ED0894A934200F09880884A93423FD000
:10546800012000234FF00112C4E91C33A26638BDA5
:10547800834BD3F8883003F00C030C2BF0D801A22F
:1054880052F823F087550008695400086954000849
:105498006954000801550008695400086954000857
:1054A80069540008495500086954000869540008FF
:1054B8006954000819550008714BD3F8883003F077
:1054C8000303022B3CD0032B22D0012B14D0B0F5C0
:1054D800004F00F0C180FFF731FEA8B90020C0E7F7
:1054E800674BD3F8883003F0C003802B28D059D8F5
:1054F800002B44D0402BB3D1B0F5004F00F0AF8063
:10550800FFF7CEFC0028E9D0616A06E0302BA7D16E
:10551800B0F5004F18D04FF400406368594A32F88C
:105528001110B0FBF1F04FF6EF7200EB5300B0FB37
:10553800F3F0A0F11003934292D82368D860CDE726
:10554800B0F5004F5048E8D162684E4B33F811105F
:10555800B0FBF1F0530803EB40034FF6EF71B3FBD8
:10556800F2F3A3F110028A423FF67AAF23F00F025A
:10557800216892B2C3F342031343CB60AEE7B0F5A0
:10558800004F62D0FFF7C8FDA7E73D4BD3F888303E
:1055980003F03003202BD3D0B8D8002BEFD0102B3A
:1055A800AAD05DE7C02BB3D05AE721F06E4121F4B1
:1055B800306111439960DA6A616A314822F00F025A
:1055C8000A43DA62D0F8883003F44063B3F5006F19
:1055D80048D033D87BB3B3F5806F7FF441AFFFF782
:1055E8005FFC00283FF47AAF616A264B656833F8A0
:1055F8001120B0FBF2F305EB450199423FF630AFBD
:10560800B3EB053F3FF62CAF00231946FEF7E0FD4C
:105618006A080302090241EA1061981841F1000181
:105628002A460023FEF7D4FD184BA0F540729A4293
:105638003FF616AF81E7FFF76FFDD2E7B3F5406F8E
:105648007FF40EAF4FF40040CFE7FFF765FD002869
:105658003FF444AF616A77E7FFF770FDF7E7FFF7BC
:105668001FFCF4E70848C0E7F369FFCF008000405B
:10567800003801400044004000480040004C004011
:10568800001002405C5D00080024F400FFFC0F00DD
:10569800836ADA0710B406D50168C46A4A6822F436
:1056A800003222434A609C0706D50168046B4A68A9
:1056B80022F4803222434A60590706D50168446BB8
:1056C8004A6822F4802222434A601A0706D50168F4
:1056D800846B4A6822F4004222434A60DC0606D5FD
:1056E8000168C46B8A6822F4805222438A60990652
:1056F80006D50168046C8A6822F4005222438A6045
:105708005A0609D50168446C4A6822F4801222437B
:10571800B4F5801F4A600BD01B0606D50268C16C21
:10572800536823F400230B4353605DF8044B704720
:105738004A68846C22F4C00222434A60ECE700BF46
:105748002DE9F047DDF82080056881460F461646AA
:105758009A4602E0B8F1FF3F0AD1EC6937EA04043F
:105768000CBF01240024B442F4D00020BDE8F08727
:10577800FEF73EFFA0EB0A00404535D8B8F1000F10
:1057880032D0D9F800502A6851072B46E5D5EA6986
:105798001205E2D54FF400622A6255E8002F22F480
:1057A800D07245E8002139B153E8002F22F4D072B5
:1057B80043E800210029F7D103F1080252E8002F3D
:1057C80022F0010203F1080040E800210029F3D18A
:1057D8002023C9F88430C9F88830C9F88C300023F0
:1057E80089F880300320C1E7D9F8003053E8002F4A
:1057F80022F4D07243E800210029F7D103F108020E
:1058080052E8002F22F0010203F1080040E80021CD
:105818000029F3D12023C9F88430C9F88830DEE79D
:1058280070B50446002682B0C0F88C60FEF7E0FE32
:1058380023681A68120705460ED41B685B071AD43A
:10584800002320221846C4F8842084F88030C4F845
:105858008820E36602B070BD6FF07E430093324645
:1058680003464FF400112046FFF76AFF78B9236812
:105878001B685B07E4D56FF07E43009300222B463C
:105888004FF480012046FFF75BFF0028D8D00320A3
:1058980002B070BD80B3D0F8843010B5044633B37D
:1058A80022682423C4F88430136823F001032046B7
:1058B8001360FFF79FFD012817D0A36A8BB92368EF
:1058C8005A6822F490425A609A6822F02A029A6032
:1058D8001A6842F0010220461A60BDE81040FFF73E
:1058E8009FBF2046FFF7D4FEE9E7012010BD80F8EE
:1058F8008030FEF7A9FDD3E7012070470368996857
:105908009B6830B44FEA537C0A4D0B4C15F80C20B9
:10591800C1F34261D2006B5C14F80C50615CB2FBBD
:10592800F5F2DB0030BCB3FBF1F3A0F86A20A0F875
:10593800683070477C5D0008745D000890F880301E
:10594800012B17D00268242310B4C0F884301168E2
:105958001468002324F0010421F000511460436608
:10596800116080F880302022C0F884205DF8044B54
:10597800184670470220704790F88030012B1FD0DE
:1059880070B524230568C0F884302E682B6823F08E
:1059980001032B60AB6823F060431943436EA96091
:1059A80004464BB1FFF7AAFF00202E60202384F89D
:1059B8008000C4F8843070BD4FF001138366F3E7AC
:1059C8000220704790F88030012B1FD070B5242337
:1059D8000568C0F884302E682B6823F001032B601B
:1059E800AB6823F060631943436EA96004464BB16A
:1059F800FFF784FF00202E60202384F88000C4F87D
:105A0800843070BD4FF001138366F3E702207047BE
:105A180070B50D4D0D4C641BA4100026A64209D18B
:105A28000B4D0C4C00F07EF9641BA4100026A64216
:105A380005D170BD55F8043B98470136EEE755F897
:105A4800043B98470136F2E78C5D00088C5D00083E
:105A58008C5D0008905D000802440346934200D123
:105A6800704703F8011BF9E72DE9F047089D0C463C
:105A7800002B4ED194468C458646B2FA82F262D902
:105A88004AB1C2F12003914020FA03F30CFA02FC58
:105A9800194300FA02FE4FEA1C471FFA8CF6B1FBC5
:105AA800F7F44FEA1E4307FB141143EA014304FBD2
:105AB80006F199420AD91CEB030304F1FF3080F088
:105AC8001381994240F21081023C6344591A1FFA2B
:105AD8008EF3B1FBF7F007FB101143EA014300FB1B
:105AE80006F69E420AD91CEB030300F1FF3180F051
:105AF800FD809E4240F2FA80634402389B1B40EAD4
:105B0800044000211DB1D3400022C5E90032BDE8A0
:105B1800F0878B4205D90DB1C5E90001002108467F
:105B2800F5E7B3FA83F1002946D1A34202D39042A4
:105B3800C0F0F180861A64EB03030120002DE6D043
:105B4800C5E90063E3E7002A40F09180A1EB0C046B
:105B58004FEA1C481FFA8CF70121B4FBF8F64FEA0C
:105B68001E4308FB164443EA044307FB06F0984229
:105B780008D91CEB030306F1FF3402D2984200F265
:105B8800CE8026461C1A1FFA8EF3B4FBF8F008FBE9
:105B9800104443EA044300FB07F79F4208D91CEB73
:105BA800030300F1FF3402D29F4200F2B180204685
:105BB800DB1B40EA0640A5E7C1F120068B4022FA2C
:105BC80006F71F4320FA06FC04FA01F343EA0C0324
:105BD800F44000FA01F8380C4FEA1349B4FBF0FE20
:105BE8001FFA87FC00FB1E4449EA04440EFB0CF92B
:105BF800A14502FA01F20AD93C190EF1FF3A80F0E8
:105C08008580A14540F28280AEF1020E3C44A4EBAF
:105C180009041FFA83F9B4FBF0F300FB134449EAC3
:105C2800044403FB0CFCA44507D93C1903F1FF30DD
:105C380068D2A44566D9023B3C4443EA0E40A0FB27
:105C48000293A4EB0C049C42CE469C4652D34FD000
:105C580055B1B8EB0E0364EB0C0404FA06F6CB401E
:105C6800CC401E43C5E900640021BDE8F087C2F1BD
:105C7800200320FA03F10CFA02FC24FA03F39440FF
:105C88000C434FEA1C4800FA02FE1FFA8CF7B3FBDC
:105C9800F8F008FB1031230C43EA014300FB07F13D
:105CA800994208D91CEB030300F1FF362CD2994224
:105CB8002AD9023863445B1AA4B2B3FBF8F108FB93
:105CC800113344EA034401FB07F3A34208D91CEB50
:105CD800040401F1FF3613D2A34211D902396444F6
:105CE800E41A41EA004138E70446EFE6084605E7CA
:105CF800C845ADD2B9EB020E63EB070C0138A7E734
:105D08003146EDE7034698E73046D4E7D6467EE7C6
:105D1800634402384CE70646234608460EE7023E2F
:105D280063442FE7F8B500BFF8BC08BC9E4670472F
:0C5D3800F8B500BFF8BC08BC9E467047E0
:105D44000000000001020304000000000000000045
:105D5400010203040607080901000200040006000A
:105D640008000A000C001000200040008000000120
:105D740008040204080101010101010307010000F4
:085D8400ECFCFF7F01000000B0
:045D8C007542000854
:045D90004D42000878
:0C5D94000024F4000100000010000000DA
:040000050800452189
:00000001FF
