:020000040800F2
:10200000008000202D260008012600080326000875
:102010000526000807260008092600080000000021
:102020000000000000000000000000000B26000877
:102030000D260008000000000F26000811260008E9
:102040007D2600087D2600087D2600087D260008E4
:102050007D2600087D2600087D2600087D260008D4
:102060007D2600087D2600087D2600087D260008C4
:102070007D2600087D2600087D2600087D260008B4
:102080007D260008000000007D2600087D2600084F
:102090007D2600087D2600087D2600087D26000894
:1020A0007D2600087D2600087D2600087D26000884
:1020B0007D2600087D2600087D2600087D26000874
:1020C0007D2600087D2600087D2600087D26000864
:1020D0007D2600087D2600087D2600087D26000854
:1020E0007D2600087D2600087D2600087D26000844
:1020F0007D2600087D2600087D26000800000000DF
:10210000000000007D260008000000007D26000879
:102110007D260008000000007D2600087D260008BE
:102120007D2600087D2600087D2600087D26000803
:102130007D26000800000000000000007D26000849
:102140007D2600087D260008000000000000000039
:10215000000000000000000000000000000000007F
:102160000000000000000000000000007D260008C4
:102170007D260008000000000000000000000000B4
:10218000000000007D2600080000000000000000A4
:10219000000000000000000000000000000000003F
:1021A00000000000000000007D2600087D260008D9
:1021B0007D2600087D2600087D260008000000001E
:1021C000000000007D260008000000000000000064
:0821D0007D2600087D260008B1
:1021D80053B94AB9002908BF00281CBF4FF0FF3186
:1021E8004FF0FF3000F00CB8ADF1080C6DE904CEEB
:1021F80001F07EFEDDF804E0DDE9022304B070475B
:10220800704700BF0348044B834202D0034B03B11D
:10221800184770470C0000200C0000200000000048
:102228000548064B1B1AD90F01EBA301491002D030
:10223800034B03B1184770470C0000200C00002026
:102248000000000010B5064C237843B9FFF7DAFF09
:10225800044B13B10448AFF300800123237010BD71
:102268000C00002000000000B441000808B5054B30
:102278001BB105490548AFF30080BDE80840FFF7EA
:10228800CFBF00BF0000000010000020B4410008CC
:1022980010B58AB00024059406940794089409940C
:1022A800214BDA6C42F00402DA64DA6C02F00402C0
:1022B8000192019ADA6C42F02002DA64DA6C02F0D8
:1022C80020020292029ADA6C42F00102DA64DA6CB5
:1022D80002F001020392039ADA6C42F00202DA6415
:1022E800DB6C03F002030493049B224620214FF089
:1022F800904000F090FB4FF4005305934FF488137F
:102308000693079405A9094800F094FA2023059339
:10231800012306930794089405A94FF0904000F014
:1023280089FA0AB010BD00BF00100240000800483A
:1023380072B6FEE708B51548154B03604FF4E13354
:10234800436000238360C36003610C2242618361A0
:1023580003624362836201F0DCFC70B900210B4820
:1023680001F04FFD58B90021084801F06FFD40B950
:10237800064801F027FD30B908BDFFF7D9FFFFF780
:10238800D7FFFFF7D5FFFFF7D3FF00BF50000020AE
:102398000080004008B50B480B4B036000234360E6
:1023A8007F228260FF22C2600361436183614FF034
:1023B8008042C261036201F0AEF900B908BDFFF7BF
:1023C800B7FF00BF280000200028004000B595B0E6
:1023D8003822002106A801F083FD00200190029018
:1023E80003900490059000F02DFB00F023FB194AA0
:1023F800D2F8903023F01803C2F8903006230693E1
:10240800012308934FF48073099340230A9302230E
:102418000D930E9304220F9255221092119312934A
:10242800139306A800F0C8FB80B90F230193032378
:102438000293002303930493059304210DEB0100F9
:1024480000F072FE20B915B05DF804FBFFF770FFCD
:10245800FFF76EFF0010024010B500F035F9FFF7E6
:10246800B5FFFFF715FFFFF765FFFFF793FF1BE0C9
:10247800012220214FF0904000F0CDFA322000F0E8
:1024880045F9002220214FF0904000F0C4FA322094
:1024980000F03CF90134092CEAD90D4A00210D4815
:1024A80001F083F900F0AEF94FF400510A4800F04A
:1024B800ABFA012801D10024EDE720214FF090402C
:1024C80000F0AEFA4FF47A7000F020F9ECE700BFA4
:1024D800EFBEADDE280000200008004800B583B03C
:1024E8000B4B1A6E42F001021A661A6E02F00102D4
:1024F8000092009A9A6D42F080529A659B6D03F0A3
:1025080080530193019B00F023FB03B05DF804FBAB
:102518000010024010B598B00446002113911491A0
:10252800159116911791442202A801F0D9FC22684E
:10253800174B9A4201D018B010BD2023029302A86D
:1025480000F018FF00BB134BDA6D42F00102DA65A8
:10255800DA6D02F001020092009ADA6C42F0010290
:10256800DA64DB6C03F001030193019B0C231393E2
:1025780002221492002215921692179313A94FF073
:10258800904000F057F9D6E7FFF7D2FEDBE700BF2F
:10259800008000400010024010B592B0044644226A
:1025A800002101A801F09CFC2268114B9A4201D03D
:1025B80012B010BD4FF4002301934FF480731193B0
:1025C80001A800F0D7FE80B90A4BD3F8902042F456
:1025D8000042C3F890209A6D42F480629A659B6D20
:1025E80003F480630093009BE2E7FFF7A1FEEBE7AB
:1025F8000028004000100240FEE7FEE7FEE7FEE785
:10260800FEE770477047704708B500F06DF808BDE1
:10261800034AD2F8883043F47003C2F88830704710
:1026280000ED00E00D4885460D480E490E4A00238E
:1026380002E0D458C4500433C4188C42F9D30B4A6E
:102648000B4C002301E013600432A242FBD3FFF7D6
:10265800DFFF01F021FCFFF7FFFEFEE7008000200E
:10266800000000200C0000201C4200080C00002084
:10267800E4000020FEE70000104B1B680BB90120A6
:10268800704710B504464FF47A70B0FBF3F30C4A68
:102698001068B0FBF3F000F0B9F868B90F2C01D955
:1026A80001200AE0002221464FF0FF3000F09AF89E
:1026B800044B1C60002000E0012010BD0400002035
:1026C800000000200800002010B5032000F078F872
:1026D8000020FFF7D1FF10B10124204610BD0446A9
:1026E800FFF7FCFEF9E70000034A1368034909688D
:1026F8000B441360704700BFE00000200400002076
:10270800014B1868704700BFE000002038B5044648
:10271800FFF7F6FF0546B4F1FF3F02D0044B1B68F4
:102728001C44FFF7EDFF401BA042FAD338BD00BFA1
:1027380004000020002808DB0901C9B200F160404C
:1027480000F5614080F80013704700F00F000901A0
:10275800C9B2014B1954704714ED00E000B500F000
:102768000700C0F1070CBCF1040F28BF4FF0040CA0
:10277800031D062B0FD9C31E4FF0FF3E0EFA0CF0B7
:1027880021EA000199400EFA03FE22EA0E0241EA0C
:1027980002005DF804FB0023EEE70000BFF34F8F53
:1027A8000549CA6802F4E062044B1343CB60BFF3E7
:1027B8004F8F00BFFDE700BF00ED00E00400FA0501
:1027C800074AD36823F4E0631B041B0C000200F4DF
:1027D800E060034343F0BF6343F40033D3607047C2
:1027E80000ED00E010B50446054BD868C0F30220A0
:1027F800FFF7B4FF01462046FFF79CFF10BD00BF5E
:1028080000ED00E008B5FFF7C9FF00000138B0F19E
:10281800807F0BD24FF0E0235861054AF02182F8FF
:1028280023100020986107221A6170470120704721
:1028380000ED00E0F0B583B0002362E085685E003B
:102848000324B44025EA0405CC68B4402C438460D2
:10285800456825EA0C054C68C4F300149C402C43D9
:1028680044605FE0DD08083550F8254003F0070CA8
:102878004FEA8C0C4FF00F0E0EFA0CFE24EA0E0EE7
:102888000C6904FA0CF444EA0E0440F8254060E0B0
:10289800052400E0002404FA0EF42C430CF1020C89
:1028A800554D45F82C40554CA568D44325EA0206F9
:1028B8004F6817F4801F01D042EA05064F4DAE60FD
:1028C800ED6804EA05064F6817F4001F01D042EAD4
:1028D80005064A4DEE606D6804EA05064F6817F470
:1028E800003F01D042EA0506444D6E602D682C4039
:1028F8004E6816F4803F01D042EA05043F4A14604E
:1029080001330A6832FA03F474D04FF0010C0CFA60
:1029180003FC1CEA0202F3D04C6804F00304013CF7
:10292800012C8BD94C6804F00304032C0CD0C46828
:102938005D004FF0030C0CFA05FC24EA0C0C8C68C3
:10294800AC4044EA0C04C4604C6804F00304022C54
:1029580088D004684FEA430E4FF0030C0CFA0EFCC3
:1029680024EA0C0C4C6804F0030404FA0EF444EA5C
:102978000C0404604C6814F4403FC1D0204C256E10
:1029880045F001052566246E04F001040194019CBC
:102998004FEA930C0CF10205174C54F8255003F03C
:1029A800030E4FEA8E0E0F2404FA0EF425EA0405EE
:1029B800B0F1904F3FF46EAF124CA04212D004F524
:1029C8008064A04210D004F58064A0420ED004F5C3
:1029D8008064A0420CD004F58064A0423FF458AF54
:1029E800062458E7012456E7022454E7032452E753
:1029F800042450E703B0F0BD00000140000401408A
:102A080000100240000400480369194201D0012067
:102A18007047002070470AB1816170478162704732
:102A2800436901EA030221EA030141EA02418161A3
:102A380070470000024A136843F4807313607047BC
:102A480000700040002836D13E4B1B6803F4C06379
:102A5800B3F5806F08D03B4AD2F8803023F48073F6
:102A6800C2F8803000207047364AD2F8803023F40C
:102A78008073C2F88030136823F4C06343F4007392
:102A88001360314B1B68322202FB03F32F4AA2FB6F
:102A980003239B0C013300E0013B2A4A526912F4DC
:102AA800806F01D0002BF7D1264B5B6913F4806F40
:102AB80044D100207047B0F5007F08D0214A136840
:102AC80023F4C06343F480631360002070471D4BF8
:102AD8001B6803F4C063B3F5806F08D0194AD2F8B5
:102AE800803043F48073C2F8803000207047154A64
:102AF800D2F8803043F48073C2F88030136823F42E
:102B0800C06343F4007313600F4B1B68322202FB4F
:102B180003F30E4AA2FB03239B0C013300E0013BA5
:102B2800084A526912F4806F01D0002BF7D1054B87
:102B38005B6913F4806F03D100207047032070474E
:102B480003207047007000400000002083DE1B4314
:102B5800024A936843F480439360704700700040D2
:102B6800124BDA6802F00302DB68C3F30313013384
:102B7800032A11D00E48B0FBF3F00C4BDB68C3F30B
:102B8800062303FB00F0094BDB68C3F34163013301
:102B98005B00B0FBF3F070470648B0FBF3F0034B63
:102BA800DB68C3F3062303FB00F0ECE700100240E8
:102BB8000024F40000366E01002800F0548270B53D
:102BC80082B00446036813F0010F37D0A44A936813
:102BD80003F00C03D26802F003020C2B23D0082B5D
:102BE80023D06368B3F5803F4ED0B3F5A02F51D002
:102BF8009B4B1A6822F480321A601A6822F48022E9
:102C08001A606368002B52D0FFF77AFD0546944B93
:102C18001B6813F4003F11D1FFF772FD401B6428B5
:102C2800F5D9032028E2032AD9D18D4B1B6813F468
:102C3800003F03D06368002B00F01782236813F06D
:102C4800020F5DD0864A936803F00C03D26802F045
:102C580003020C2B3AD0042B3AD0E368002B75D032
:102C68007F4A136843F480731360FFF749FD0546F4
:102C78007B4B1B6813F4806F5FD1FFF741FD401B4E
:102C88000228F5D90320F7E1754A136843F4803325
:102C98001360B6E703F18043A3F53C331A6842F4A6
:102CA80080221A601A6842F480321A60A9E7FFF796
:102CB80027FD05466A4B1B6813F4003FBED0FFF79B
:102CC8001FFD401B6428F5D90320D5E1022AC2D193
:102CD800634B1B6813F4806F03D0E368002B00F08C
:102CE800C6815F4A536823F0FE43216943EA0163C2
:102CF80053605C4B1868FFF7BFFC002840F0B981AF
:102D0800236813F0080F4CD063699BB3544AD2F878
:102D1800943043F00103C2F89430FFF7F1FC054604
:102D28004F4BD3F8943013F0020F3AD1FFF7E8FC79
:102D3800401B0228F4D903209EE1494A536823F036
:102D4800FE43216943EA01635360D9E7444A1368A3
:102D580023F480731360FFF7D3FC0546404B1B68D0
:102D680013F4806FCCD0FFF7CBFC401B0228F5D9B9
:102D7800032081E13A4AD2F8943023F00103C2F8E3
:102D88009430FFF7BDFC0546354BD3F8943013F06B
:102D9800020F06D0FFF7B4FC401B0228F4D9032029
:102DA8006AE1236813F0040F00F081802C4B9B6DBF
:102DB80013F0805F36D12A4B9A6D42F080529A65A3
:102DC8009B6D03F080530193019B0125264B1B68E3
:102DD80013F4807F28D0A368012B39D0052B45D068
:102DE8001F4BD3F8902022F00102C3F89020D3F8AB
:102DF800902022F00402C3F89020A368002B43D04F
:102E0800FFF77EFC0646164BD3F8903013F0020FFE
:102E18004CD1FFF775FC801B41F288339842F2D9F8
:102E2800032029E10025D1E70F4A136843F4807392
:102E38001360FFF765FC06460B4B1B6813F4807F95
:102E4800C9D1FFF75DFC801B0228F5D9032013E1E7
:102E5800034AD2F8903043F00103C2F89030CCE72F
:102E68000010024008000020007000408A4BD3F890
:102E7800902042F00402C3F89020D3F8902042F04A
:102E88000102C3F89020B8E7FFF73AFC0646824BE8
:102E9800D3F8903013F0020F08D0FFF731FC801BF5
:102EA80041F288339842F2D90320E5E0E5B9236876
:102EB80013F0200F35D0A369E3B1774AD2F89830E0
:102EC80043F00103C2F89830FFF71AFC0546724B2D
:102ED800D3F8983013F0020F23D1FFF711FC401BF1
:102EE8000228F4D90320C7E06B4A936D23F080537E
:102EF8009365DCE7684AD2F8983023F00103C2F8FA
:102F08009830FFF7FDFB0546634BD3F8983013F074
:102F1800020F06D0FFF7F4FB401B0228F4D9032068
:102F2800AAE0E369002B00F0A6805B4A926802F0F1
:102F38000C020C2A69D0022B1DD0574B1A6822F0BC
:102F480080721A60DA6822F00302DA60DA6822F026
:102F5800887222F48032DA60FFF7D2FB04464E4BC7
:102F68001B6813F0007F4ED0FFF7CAFB001B022836
:102F7800F5D9032080E0484A136823F08073136072
:102F8800FFF7BEFB0546444B1B6813F0007F06D0D5
:102F9800FFF7B6FB401B0228F5D903206CE03E4A38
:102FA800D3683E491940236A606A013843EA00132E
:102FB800A06A43EA0023206B4008013843EA4053E3
:102FC800606B4008013843EA4063E06A43EAC06343
:102FD8001943D160136843F080731360D36843F0DA
:102FE8008073D360FFF78CFB04462B4B1B6813F0F0
:102FF800007F06D1FFF784FB001B0228F5D90320C8
:103008003AE0002038E0002036E0012B36D0224B91
:10301800DB6803F00301226A914231D103F0F00228
:10302800616A0139B2EB011F2CD103F4FE42A16A97
:10303800B2EB012F28D103F07842E16AB2EBC16FFD
:1030480024D103F4C001226B5208013AB1EB425F6C
:103058001ED103F0C063626B5208013AB3EB426FB2
:1030680018D1002008E001207047012004E0012069
:1030780002E0012000E0002002B070BD0120FBE763
:103088000120F9E70120F7E70120F5E70120F3E740
:103098000120F1E70120EFE7001002400C809F01BA
:1030A8001E4B9B6803F00C03042B33D01B4B9B680F
:1030B80003F00C03082B2FD0184B9B6803F00C036C
:1030C8000C2B01D000207047144BDA6802F0030281
:1030D800DB68C3F303130133032A11D01048B0FB94
:1030E800F3F00E4BDB68C3F3062303FB00F00B4B36
:1030F800DB68C3F3416301335B00B0FBF3F0704757
:103108000848B0FBF3F0054BDB68C3F3062303FB69
:1031180000F0ECE702487047024870470010024090
:103128000024F40000366E01002800F0E680F8B5AF
:103138000C460546744B1B6803F00F038B420BD2F9
:10314800714A136823F00F030B431360136803F0ED
:103158000F038B4240F0D3802E6816F001065FD033
:103168006B68032B2FD0022B4DD0684B1B6813F4D0
:10317800806F00F0C680FFF793FF654B98424DD9EA
:10318800624A936823F0F00343F08003936080263B
:103198005E4A936823F0030369680B439360FFF763
:1031A800AFFA0746594B9B6803F00C036A68B3EB08
:1031B800820F35D0FFF7A4FAC01B41F2883398423A
:1031C800F0D9032078E0514B1B6813F0007F01D140
:1031D800012071E0FFF7C4FC4D4B98421AD94B4BC4
:1031E8009B6813F0F00F05D02E6816F00206CFD0BA
:1031F800AB688BB9454A936823F0F00343F080032A
:1032080093608026C4E7414B1B6813F4003FB2D19A
:10321800012051E00026BBE70026B9E70026B7E702
:103228002B6813F0020F48D013F0040F04D0374A6C
:10323800936843F4E06393602B6813F0080F06D09B
:10324800324A936823F47C5343F4E06393602F4A33
:10325800936823F0F003A9680B4393602A4B1B681B
:1032680003F00F03A34230D82B6813F0040F06D0E5
:10327800264A936823F4E063E9680B4393602B685C
:1032880013F0080F07D0214A936823F46053296983
:1032980043EAC1039360FFF703FF1C4B9B68C3F32A
:1032A80003131C4AD35C03F01F03D8401A4B186061
:1032B8001A4B1868FFF7E0F9F8BD802ECED1134AF3
:1032C800936823F0F0039360C8E70F4A136823F06C
:1032D8000F0323431360FFF713FA06460A4B1B68D4
:1032E80003F00F03A342BFD0FFF70AFA801B41F295
:1032F80088339842F2D90320DEE701207047012085
:10330800DAE70120D8E700BF0020024000100240A1
:1033180000B4C404D44100080000002008000020C4
:10332800014B1868704700BF0000002008B5FFF780
:10333800F7FF054B9B68C3F30223044AD35C03F0F1
:103348001F03D84008BD00BF00100240CC41000850
:1033580008B5FFF7E5FF054B9B68C3F3C223044A92
:10336800D35C03F01F03D84008BD00BF0010024023
:10337800CC410008F0B583B00446036813F4002F6D
:1033880069D0AE4B9B6D13F0805F1ED1AB4B9A6D2D
:1033980042F080529A659B6D03F080530193019B24
:1033A8000126A74A136843F480731360FFF7A8F94E
:1033B8000546A34B1B6813F4807F08D1FFF7A0F9DB
:1033C800401B0228F5D9032502E00026E9E700257D
:1033D80045BB9A4BD3F8903013F4407315D0226C48
:1033E8009A4212D0954AD2F8903023F44073D2F81A
:1033F800901041F48031C2F89010D2F8901021F466
:103408008031C2F89010C2F8903013F0010F10D13B
:1034180045B98A4AD2F8903023F44073216C0B43A3
:10342800C2F89030C6B1854A936D23F080539365F6
:1034380012E0FFF765F90746804BD3F8903013F098
:10344800020FE5D1FFF75CF9C01B41F288339842BF
:10345800F2D90325DCE70025236813F0010F08D013
:10346800764AD2F8883023F0030361680B43C2F828
:103478008830236813F0020F08D0704AD2F88830D9
:1034880023F00C03A1680B43C2F88830236813F0BB
:10349800040F08D0694AD2F8883023F03003E16875
:1034A8000B43C2F88830236813F0080F08D0634A2A
:1034B800D2F8883023F0C00321690B43C2F8883062
:1034C800236813F0200F08D05C4AD2F8883023F420
:1034D800406361690B43C2F88830236813F0400FDA
:1034E80008D0564AD2F8883023F44053A1690B43D8
:1034F800C2F88830236813F0800F08D04F4AD2F8FA
:10350800883023F44043E1690B43C2F888302368CC
:1035180013F4807F08D0494AD2F8883023F4403326
:10352800216A0B43C2F88830236813F4007F08D05F
:10353800424AD2F8883023F44023616A0B43C2F828
:103548008830236813F4806F0CD03C4AD2F8883056
:1035580023F44013A16A0B43C2F88830A36AB3F579
:10356800801F57D0236813F4006F0CD0334AD2F869
:10357800883023F44003E16A0B43C2F88830E36AD9
:10358800B3F5800F4BD0236813F4805F0CD02B4A1F
:10359800D2F8883023F04073216B0B43C2F888308F
:1035A800236BB3F1807F3FD0236813F4005F0CD006
:1035B800224AD2F8883023F04063616B0B43C2F88B
:1035C8008830636BB3F1006F33D0236813F4804FF6
:1035D8000CD01A4AD2F8883023F04063A16B0B4311
:1035E800C2F88830A36BB3F1006F2BD0236813F4B3
:1035F800004F0CD0114AD2F8883023F04053E16BC9
:103608000B43C2F88830E36BB3F1805F1FD02846C4
:1036180003B0F0BDD36843F48013D360A2E7D36846
:1036280043F48013D360AEE7D36843F48013D360C8
:10363800BAE7D36843F48013D360C6E700100240AA
:1036480000700040D36843F48013D360CEE7D3689A
:1036580043F48033D360DAE738B504460268D368A8
:1036680023F02003D360FFF74BF805462368DB6897
:1036780013F0200F07D1FFF743F8401BB0F57A7F0E
:10368800F4D9032000E0002038BD70B50368DA687B
:1036980012F0400F02D00025284670BD0446DA68B3
:1036A80042F08002DA60FFF72BF80646002523680F
:1036B800DB6813F0400FEFD1032DEDD0FFF720F8B2
:1036C800831BB3F57A7FF2D9032584F82550EEE7FA
:1036D80010B504460268D36823F08003D3600368FA
:1036E8009A6912F0200F06D1FFF7B6FF90B10320B8
:1036F80084F825000EE09A6922F020029A61FFF70B
:10370800ABFF10B1032084F825002268936943F0C9
:103718002003936110BD002845D038B5044690F8C1
:103728002530A3B1022384F825302368CA225A62BF
:10373800236853225A622046FFF7A7FF60B1236827
:10374800FF225A6210B9012384F8253038BD80F869
:103758002430FEF721FFE5E72268936923F08E63A2
:1037680023F04003936121688A69636820690343F1
:10377800A069034313438B61E368A168226843EAA5
:10378800014313612046FFF7A3FF0028D7D1216822
:103798008B6923F06043226AE5692A4365692A43F5
:1037A80013438B61CBE701207047890001F1804109
:1037B80001F514510A60704770B5044601688368C2
:1037C8000269134342691343C269134308688B4A69
:1037D80002401A430A602268536823F44053E168A0
:1037E8000B435360A1692268854B9A4201D0236A32
:1037F8001943936823F06E4323F430630B439360BB
:103808002268D36A23F00F03616A0B43D3622368EB
:103818007C4A934223D07C4A934234D07B4A9342D9
:103828004AD07B4A934259D0754A934268D01022B5
:1038380073498B4200F09580E069B0F5004F00F0C5
:10384800D280082A00F24F81DFE812F01201340119
:1038580010014D0137014D014D014D013A0102F5AD
:103868005842D2F8882002F00302032A09D8DFE878
:1038780002F002045C060122DAE70422D8E70822F3
:10388800D6E71022D4E702F5E632D2F8882002F013
:103898000C020C2A0ED8DFE802F0070D0D0D090DF9
:1038A8000D0D4A0D0D0D0B000022C1E70422BFE7E4
:1038B8000822BDE71022BBE702F5E432D2F88820DF
:1038C80002F03002202A34D004D8A2B3102A34D10E
:1038D8000422ADE7302A32D10822A9E702F5E23204
:1038E800D2F8882002F0C002802A2AD004D852B325
:1038F800402A2AD104229BE7C02A28D1082297E728
:1039080002F5C832D2F8882002F44062B2F5006F9E
:103918001FD005D8FAB1B2F5806F1ED1042287E70F
:10392800B2F5406F1BD1082282E7022280E702220B
:103938007EE702227CE700227AE7102278E710224D
:1039480076E7022274E7002272E7102270E710225D
:103958006EE702226CE700226AE7102268E710226D
:1039680066E7082A00F2AF80DFE802F008AD3BAD59
:1039780038ADADAD05004FF4004004E0FFF7D6FCCC
:10398800002800F0A280626A224B33F81220B0FBB4
:10399800F2F3656805EB4501994200F29880B3EBB4
:1039A800053F00F29680002633463146FEF710FCAC
:1039B800090241EA106100026B08C0182A46334622
:1039C80041F10001FEF704FCA0F54072124B9A4247
:1039D80000F281802368D860304662E0FFF760FB20
:1039E800CEE70E48CFE7082A77D8DFE802F0193982
:1039F80005763C7676761D00084815E0F369FFCF1A
:103A08000080004000380140004400400048004069
:103A1800004C0040E4410008FFFC0F000024F400C3
:103A2800FFF784FC00285AD0626A324B33F8123010
:103A3800B0FBF3F06268530803EB4003B3FBF2F307
:103A4800A3F110014FF6EF7291424AD89AB222F0D0
:103A58000F02C3F3420313432268D360002020E01F
:103A6800FFF776FCDEE7FFF71BFBDBE7224803E006
:103A7800FFF75CFC002838D0626A1E4B33F812301E
:103A8800B0FBF3F0636800EB5300B0FBF3F0A0F178
:103A980010024FF6EF739A4229D8236880B2D86093
:103AA80000200123A4F86A30A4F8683000232367B3
:103AB800636770BDFFF74CFCDCE7FFF7F1FAD9E765
:103AC8004FF40040D8E70120EBE70020E9E70120A8
:103AD800E7E70120E5E70120E3E70120E1E700202F
:103AE800DFE70120DDE70120DBE70020D9E701203F
:103AF800D7E700BFE44100080024F400836A13F00C
:103B0800010F06D00268536823F40033C16A0B43DF
:103B18005360836A13F0020F06D00268536823F4D7
:103B28008033016B0B435360836A13F0040F06D094
:103B38000268536823F48023416B0B435360836A04
:103B480013F0080F06D00268536823F40043816B12
:103B58000B435360836A13F0100F06D00268936812
:103B680023F48053C16B0B439360836A13F0200FD7
:103B780006D00268936823F40053016C0B439360EA
:103B8800836A13F0400F0AD00268536823F4801345
:103B9800416C0B435360436CB3F5801F0BD0836AB1
:103BA80013F0800F06D00268536823F40023C16C19
:103BB8000B43536070470268536823F4C003816C59
:103BC8000B435360EBE72DE9F84305460F461646CD
:103BD8009946DDF820802B68DC6937EA04040CBFBD
:103BE80001240024B44257D1B8F1FF3FF3D0FEF7C7
:103BF80087FDA0EB090040452FD8B8F1000F2CD065
:103C08002B681A6812F0040FE5D0DA6912F4006F15
:103C1800E1D04FF400621A622A6852E8003F23F4A8
:103C2800D07342E800310029F6D12A6802F108036E
:103C380053E8003F23F00103083242E8003100292D
:103C4800F3D12023C5F88430C5F88830C5F88C3006
:103C5800002385F8803003201FE02A6852E8003FDF
:103C680023F4D07342E800310029F6D12A6802F122
:103C7800080353E8003F23F00103083242E800310B
:103C88000029F3D12023C5F88430C5F888300023F3
:103C980085F88030032000E00020BDE8F88330B5C7
:103CA80083B004460023C0F88C30FEF729FD054692
:103CB8002268126812F0080F0FD123681B6813F0EE
:103CC800040F18D12023C4F88430C4F888300020A9
:103CD800E06684F8800003B030BD6FF07E43009347
:103CE800034600224FF400112046FFF76CFF00281E
:103CF800E3D00320EFE76FF07E4300932B460022CA
:103D08004FF480012046FFF75EFF0028DAD0032039
:103D1800E1E778B310B50446D0F884300BB3242318
:103D2800C4F884302268136823F001031360204626
:103D3800FFF742FD012813D0A36ABBB92268536874
:103D480023F4904353602268936823F02A03936016
:103D58002268136843F0010313602046FFF79FFFB2
:103D680010BD80F88030FEF7D5FBD8E72046FFF776
:103D7800C5FEE3E701207047436E2BB90123A0F885
:103D88006A30A0F86830704730B403689A68C2F3A4
:103D980042629968490F094D6B5CDB00084C615C15
:103DA80093FBF1F3A0F86A30AB5CDB00A25C93FBF9
:103DB800F2F3A0F8683030BC704700BF0442000836
:103DC800FC41000890F88030012B18D0012380F8BE
:103DD80080302423C0F8843003681A68196821F0F9
:103DE8000101196022F000520023436601680A604D
:103DF8002022C0F8842080F88030184670470220BE
:103E0800704738B590F88030012B1DD00446012347
:103E180080F880302423C0F8843003681D681A684D
:103E280022F001021A600268936823F06043194384
:103E38009160FFF7A1FF23681D602023C4F8843038
:103E4800002084F8800038BD0220FCE738B590F8DF
:103E58008030012B1DD00446012380F880302423B4
:103E6800C0F8843003681D681A6822F001021A60DD
:103E78000268936823F0606319439160FFF77CFF41
:103E880023681D602023C4F88430002084F8800053
:103E980038BD0220FCE7000070B50D4D0D4C641BC9
:103EA800A4100026A64209D10B4D0C4C00F07EF957
:103EB800641BA4100026A64205D170BD55F8043B2A
:103EC80098470136EEE755F8043B98470136F2E784
:103ED800144200081442000814420008184200085E
:103EE80002440346934200D1704703F8011BF9E7E7
:103EF8002DE9F047089D0C46002B4ED194468C4581
:103F08008646B2FA82F262D94AB1C2F120039140E0
:103F180020FA03F30CFA02FC194300FA02FE4FEAF6
:103F28001C471FFA8CF6B1FBF7F44FEA1E4307FB58
:103F3800141143EA014304FB06F199420AD91CEB28
:103F4800030304F1FF3080F01381994240F210819D
:103F5800023C6344591A1FFA8EF3B1FBF7F007FBD2
:103F6800101143EA014300FB06F69E420AD91CEBF6
:103F7800030300F1FF3180F0FD809E4240F2FA8099
:103F8800634402389B1B40EA044000211DB1D34022
:103F98000022C5E90032BDE8F0878B4205D90DB192
:103FA800C5E9000100210846F5E7B3FA83F10029C5
:103FB80046D1A34202D39042C0F0F180861A64EB46
:103FC80003030120002DE6D0C5E90063E3E7002ADA
:103FD80040F09180A1EB0C044FEA1C481FFA8CF7C3
:103FE8000121B4FBF8F64FEA1E4308FB164443EAE6
:103FF800044307FB06F0984208D91CEB030306F1BB
:10400800FF3402D2984200F2CE8026461C1A1FFACC
:104018008EF3B4FBF8F008FB104443EA044300FBBA
:1040280007F79F4208D91CEB030300F1FF3402D2C3
:104038009F4200F2B1802046DB1B40EA0640A5E71C
:10404800C1F120068B4022FA06F71F4320FA06FC2E
:1040580004FA01F343EA0C03F44000FA01F8380CBF
:104068004FEA1349B4FBF0FE1FFA87FC00FB1E441D
:1040780049EA04440EFB0CF9A14502FA01F20AD9F7
:104088003C190EF1FF3A80F08580A14540F282800C
:10409800AEF1020E3C44A4EB09041FFA83F9B4FB09
:1040A800F0F300FB134449EA044403FB0CFCA44569
:1040B80007D93C1903F1FF3068D2A44566D9023B01
:1040C8003C4443EA0E40A0FB0293A4EB0C049C4240
:1040D800CE469C4652D34FD055B1B8EB0E0364EB95
:1040E8000C0404FA06F6CB40CC401E43C5E9006434
:1040F8000021BDE8F087C2F1200320FA03F10CFA91
:1041080002FC24FA03F394400C434FEA1C4800FADB
:1041180002FE1FFA8CF7B3FBF8F008FB1031230CF2
:1041280043EA014300FB07F1994208D91CEB03035A
:1041380000F1FF362CD299422AD9023863445B1A1F
:10414800A4B2B3FBF8F108FB113344EA034401FBC2
:1041580007F3A34208D91CEB040401F1FF3613D27C
:10416800A34211D902396444E41A41EA004138E70C
:104178000446EFE6084605E7C845ADD2B9EB020E9E
:1041880063EB070C0138A7E73146EDE7034698E7EC
:104198003046D4E7D6467EE7634402384CE7064605
:1041A800234608460EE7023E63442FE7F8B500BFF2
:1041B800F8BC08BC9E467047F8B500BFF8BC08BC00
:0441C8009E46704758
:1041CC0000000000010203040000000000000000D9
:1041DC00010203040607080901000200040006009E
:1041EC0008000A000C0010002000400080000001B4
:1041FC000804020408010101010101030701000088
:08420C00ECFCFF7F0100000043
:044214007522000807
:044218004D2200082B
:0C421C000024F40001000000100000006D
:040000050800262D9C
:00000001FF
